:100000000C9434000C9449000C9449000C94490061
:100010000C9449000C9449000C9449000C9449003C
:100020000C9449000C9449000C9449000C9449002C
:100030000C9449000C9449000C9449000C9449001C
:100040000C9449000C9449000C9449000C9449000C
:100050000C9449000C9449000C9449000C944900FC
:100060000C9449000C94490011241FBECFEFD8E036
:10007000DEBFCDBF11E0A0E0B1E0EEE1FAE002C0EA
:1000800005900D92A031B107D9F70E942C040C9471
:100090000D050C940000FC0184B18E6084B981EAE6
:1000A000809380008AE08093810083E88093B00091
:1000B00082E08093B10010821182128281E08383FA
:1000C0008483858316821782108611860895E0E85E
:1000D000F0E080818F758083E0EBF0E080818F77A6
:1000E000808385B1817F85B90895E0E8F0E0808163
:1000F000806A8083E0EBF0E08081806880830895EF
:10010000AF92BF92CF92DF92EF920F931F93FC01B9
:10011000CA01DB0146815781608571855C016D01F3
:10012000A41AB50AC60AD70AB601A5014017510795
:100130006207730708F449C086839783A087B18755
:10014000E69450818381282F082E000C330B250F55
:10015000311D2F3F310519F010F081958383848183
:100160002181682F082E000C770B260F372F311DA9
:100170002F3F310519F010F08195848342818581EC
:10018000282F082E000C330B240F311D2F3F310573
:1001900019F010F0819585839381950F9083858167
:1001A000840F8283809180008F7D80938000808186
:1001B0006E2D0E94AA0490E090938900809388009D
:1001C00082810E94AA048093B3001F910F91EF9047
:1001D000DF90CF90BF90AF900895FC0185B19381DF
:1001E000892B85B995B183818095892385B9089537
:1001F000815008F40895EFE7FCE03197F1F700C073
:100200000000F6CF82E00E947A030C94F80081E0AF
:100210000E947A0387BD0895FC0180E1808380E419
:10022000818380E8828381E083838AB1806D8AB98B
:1002300084B19381892B84B90C942704FC01662333
:1002400019F0613019F008950C94ED008BB1928192
:10025000892B8BB99BB18281809589238BB90895B5
:10026000AF92BF92CF92DF92EF92FF920F931F93C4
:10027000CF93DF936C01B62EA72E7901EA0183E0BC
:10028000CC0FDD1F8A95E1F710E000E00C171D0789
:1002900074F061E0C601DF91CF911F910F91FF9043
:1002A000EF90DF90CF90BF90AF900C941E018B2DFC
:1002B0009A2D0E94E303811113C00E940701F601E9
:1002C00080819BB1E114F10441F0892B8BB9C60107
:1002D0000E94ED000F5F1F4FD9CF80958923F6CF85
:1002E000DF91CF911F910F91FF90EF90DF90CF9012
:1002F000BF90AF9008952F923F924F925F926F926E
:100300007F928F929F92AF92BF92CF92DF92EF92A5
:10031000FF920F931F93CF93DF93CDB7DEB7609714
:100320000FB6F894DEBF0FBECDBF89839A836D8769
:100330007E872A87440F440F440F4C83222309F4FD
:100340004FC021E030E040E050E060E070E080E04D
:1003500090E0AC81A150BB0B8D010E94B6042F87A9
:10036000388B942E852E762E672E582E492E212CD2
:10037000312C1B821D821E821F8218861986FC81E9
:10038000EF2FF0E0FC87EB872C8130E040E050E07D
:1003900060E070E080E090E05101CB80DD80EE8095
:1003A000FF80088519850E94F80409F018F5609609
:1003B0000FB6F894DEBF0FBECDBFDF91CF911F9176
:1003C0000F91FF90EF90DF90CF90BF90AF909F90F4
:1003D0008F907F906F905F904F903F902F900895F7
:1003E000B1E0BF87188A912C812C712C612C512C83
:1003F000412CBDCF8D859E850E94E3038111D7CF0F
:100400000E940701EB84FC8481E0E81AF108EFEF19
:10041000EE16FE0681F561E089819A810E941E0137
:100420000E940201FA852F853889492D582D672DA4
:10043000762D852D942D01E0FF2309F445C00E94FF
:10044000D1042F87388B942E852E762E672E582E2A
:10045000492E91014B815D816E817F8188859985CF
:10046000A1E00E94EC0419014B835D836E837F83BE
:100470008887998789CFA981BA81EC912F8538899E
:10048000492D582D672D762D852D942D0E2D0E94EA
:10049000D104217030E040E050E060E070E080E0A6
:1004A00090E0A0E00E94010559F08BB1E82BEBB978
:1004B00089819A810E94ED00B1E0EB1AF108A7CF83
:1004C0008BB1E095E823F3CF0E94B604BACF2F9208
:1004D0003F924F925F926F927F928F929F92AF92D4
:1004E000BF92CF92DF92EF92FF920F931F93CF9321
:1004F000DF93CDB7DEB72D970FB6F894DEBF0FBEF2
:10050000CDBF4C016A877B8749835A83A22EE42F93
:10051000EE0FEE0FEE0F2223D1F12FEF30E040E08F
:1005200050E060E070E080E090E0AE2FA850BB0BA0
:100530008D010E94B6042C873D87142FF52EE62EE0
:10054000D72EC82EB92E312C212C8E2F90E09987D2
:100550008887A981BA812A163B061CF12D960FB611
:10056000F894DEBF0FBECDBFDF91CF911F910F91E9
:10057000FF90EF90DF90CF90BF90AF909F908F90C3
:100580007F906F905F904F903F902F900895BFEFB6
:10059000BC871D8610E0F12CE12CD12CC12CB12C94
:1005A000D2CF8A859B850E94E3038111D7CF0E9419
:1005B00007010C859D859B831C83FD82EE822601AD
:1005C000BF82712C612C8885998568167906FCF0AC
:1005D00061E0C4010E941E010E9402012C853D853C
:1005E000412F5F2D6E2D7D2D8C2D9B2D08E0AA2097
:1005F000F1F10E94D1042C873D87142FF52EE62EB1
:10060000D72EC82EB92E9FEF291A390AA2CFD401AE
:10061000EC91202F217030E040E050E060E070E08D
:1006200080E090E0A0E00E940105E9F08BB1E82BAA
:10063000EBB9C4010E94ED00202F3B814C815D810C
:100640006E81752D842D9F8101E00E94D104022FBF
:100650003B834C835D836E83572E482E9F83BFEF71
:100660006B1A7B0AB0CF8BB1E095E823E1CF0E94F3
:10067000B604C1CF0F931F93CF93DF938C01D62F76
:10068000C72F4230B1F04330F1F0413071F562E0F4
:1006900070E08D2F9C2F0E94BF03282F42E050E076
:1006A0006D2F7C2FC801DF91CF911F910F910C947A
:1006B0007B0162E070E08D2F9C2F0E94BF03282FEA
:1006C00043E050E0EDCF62E070E08D2F9C2F0E9460
:1006D000BF03282F46E050E06D2F7C2FC801DF912B
:1006E000CF911F910F910C946702DF91CF911F91D1
:1006F0000F91089590917C00907F8F70982B90932C
:100700007C0080917A00806480937A0090917A00D6
:10071000892F807496FDFACF40917800509179002E
:100720009A0136952795369527954C3F534028F4E6
:100730002531310518F0822F08958EEF089584E059
:100740000E947A03282F30E0843128F0283C3105BC
:1007500020F08EE1089582E0089584E0089583E01A
:100760000E947A03282F30E0823328F026393105A1
:1007700020F083E0089581E0089582E00895DC018F
:100780006530710568F4FB01EE0FFF1FE60FF71FE0
:10079000E80FF91F1F969C918181982381E009F44D
:1007A00080E00895FC018081433631F496B16923DD
:1007B00039F0822B80830895443611F499B1F7CF34
:1007C00020958223F7CFDF92EF92FF920F931F9332
:1007D000CF93DF93EC01DF848C017C014FE0E40ECA
:1007E000F11CF801218142816081C7010E94D2037E
:1007F0000D5F1F4F0E151F05A1F70E94AF039F85C8
:100800009F79F0E28F9F90011124922B9F8781E0C6
:100810009D1101C080E0DF91CF911F910F91FF905A
:10082000EF90DF9008958295869583700895DC019E
:1008300080E1E0E0F1E001900D928A95E1F7089502
:1008400080E480937C0087E880937A00089583E8B1
:1008500084BD82E085BD0895CDB7DEB76E970FB633
:10086000F894DEBF0FBECDBFCE0101960E941704E3
:10087000CE014B960E940C01CE0141960E944B0086
:100880000E942004812C912C54018FEF881A980A21
:10089000A80AB80A70E060E0CE0101960E94BF038A
:1008A00081110EC00E94670030E020E046E050E079
:1008B000BE016F5F7F4FCE014B960E943001E5CFA6
:1008C00064E070E0CE0101960E94BF03882359F1D5
:1008D0000E9475000E949F03E82E01E010E020E0D6
:1008E00030E0B501A401CE0141960E94800061E094
:1008F00070E0CE0101960E94BF03882341F163E0BE
:1009000070E0CE0101960E94BF03882379F08889A8
:100910000E941304482FBE016F5F7F4FCE014B969C
:100920000E943A03B2CF0E946700E1CF62E070E01C
:10093000CE0101960E94BF03282F46E050E0BE0181
:100940006F5F7F4FCE014B960E947B019ECF21E0CF
:1009500030E0ACCF991B79E004C0991F961708F0DE
:10096000961B881F7A95C9F780950895002E083048
:1009700090F0982F872F762F652F542F432F322FEB
:1009800022270850F4CF220F331F441F551F661F24
:10099000771F881F991F0A95B2F7002D089597FDBC
:1009A0001094002E083098F00850232F342F452F34
:1009B000562F672F782F892F912DF4CF1594979567
:1009C00087957795679557954795379527950A9514
:1009D000AAF71124002D08950024A7FD00942A0FE2
:1009E000301D401D501D601D701D801D901D0895FF
:1009F0002A153B054C055D056E057F0580079107AF
:100A000008950024A7FD00942A17300540055005DD
:0E0A100060057005800590050895F894FFCFED
:100A1E00200164080264040464010863201063006A
:00000001FF
